{
  "contractName": "Count",
  "abi": [
    {
      "constant": true,
      "inputs": [],
      "name": "count",
      "outputs": [
        {
          "name": "",
          "type": "uint256"
        }
      ],
      "payable": false,
      "stateMutability": "view",
      "type": "function"
    },
    {
      "constant": true,
      "inputs": [],
      "name": "lastParticipant",
      "outputs": [
        {
          "name": "",
          "type": "address"
        }
      ],
      "payable": false,
      "stateMutability": "view",
      "type": "function"
    },
    {
      "inputs": [],
      "payable": false,
      "stateMutability": "nonpayable",
      "type": "constructor"
    },
    {
      "constant": false,
      "inputs": [],
      "name": "plus",
      "outputs": [],
      "payable": false,
      "stateMutability": "nonpayable",
      "type": "function"
    },
    {
      "constant": false,
      "inputs": [],
      "name": "minus",
      "outputs": [],
      "payable": false,
      "stateMutability": "nonpayable",
      "type": "function"
    }
  ],
  "bytecode": "0x608060405234801561001057600080fd5b5060008081905550610218806100276000396000f300608060405260043610610062576000357c0100000000000000000000000000000000000000000000000000000000900463ffffffff16806306661abd1461006757806314434fa51461009257806318b0c3fd146100a9578063bfe7e4e3146100c0575b600080fd5b34801561007357600080fd5b5061007c610117565b6040518082815260200191505060405180910390f35b34801561009e57600080fd5b506100a761011d565b005b3480156100b557600080fd5b506100be610172565b005b3480156100cc57600080fd5b506100d56101c6565b604051808273ffffffffffffffffffffffffffffffffffffffff1673ffffffffffffffffffffffffffffffffffffffff16815260200191505060405180910390f35b60005481565b60008081548092919060019003919050555033600160006101000a81548173ffffffffffffffffffffffffffffffffffffffff021916908373ffffffffffffffffffffffffffffffffffffffff160217905550565b600080815480929190600101919050555033600160006101000a81548173ffffffffffffffffffffffffffffffffffffffff021916908373ffffffffffffffffffffffffffffffffffffffff160217905550565b600160009054906101000a900473ffffffffffffffffffffffffffffffffffffffff16815600a165627a7a72305820e0b6b87590349d2bfdfe7d560b66c2dcd939b5334a443bae6ce5f2c31b2767590029",
  "source": "pragma solidity ^0.4.23;\n\n/*\n  * storage variables *\n  Count contract has 2 public storage variables.\n\n  1) count - By default, count's value is 0,\n             it could increase or decrease through `plus` or `minus` function.\n  2) lastParticipant - lastParticipant is last person's address\n                       who sent a transaction(called plus or minus) to Count contract.\n  Count contract.\n\n  * functions *\n  Count contract has 2 public functions.\n  1) plus - increase `count` storage variable by 1. (+1)\n  2) minus - decrease `count` storage variable by 1. (-1)\n */\n\ncontract Count {\n  uint public count;\n  address public lastParticipant;\n\n  constructor() public {\n    count = 0;\n  }\n\n  function plus() public {\n    count++;\n    lastParticipant = msg.sender;\n  }\n\n  function minus() public {\n    count--;\n    lastParticipant = msg.sender;\n  }\n}\n",
  "sourcePath": "/Users/hoonilkim/work/klay-dapp/generator-klay-dapp/generators/app/templates/contracts/Count.sol",
  "compiler": {
    "name": "solc",
    "version": "0.4.24+commit.e67f0147.Emscripten.clang"
  },
  "schemaVersion": "2.0.1",
  "updatedAt": "2018-11-12T07:06:59.674Z"
}