{
  "contractName": "Count2",
  "abi": [
    {
      "inputs": [],
      "payable": false,
      "stateMutability": "nonpayable",
      "type": "constructor"
    },
    {
      "constant": false,
      "inputs": [],
      "name": "setCount",
      "outputs": [],
      "payable": false,
      "stateMutability": "nonpayable",
      "type": "function"
    }
  ],
  "bytecode": "0x60806040526000805534801561001457600080fd5b5061010b806100246000396000f300608060405260043610603f576000357c0100000000000000000000000000000000000000000000000000000000900463ffffffff168063f3922ca2146044575b600080fd5b348015604f57600080fd5b5060566058565b005b600160005414151560d1576040517f08c379a00000000000000000000000000000000000000000000000000000000081526004018080602001828103825260118152602001807f436f756e742073686f756c64206265203100000000000000000000000000000081525060200191505060405180910390fd5b6001600054016000819055505600a165627a7a723058208f365972d9781e34e1c2e883c45aa2ea74601590a5d77761473aacbb1e2b4d130029",
  "source": "pragma solidity ^0.4.24;\n\ncontract Count2 {\n    uint256 count = 0;\n    \n    constructor() public {\n        \n    }\n    \n    function setCount() public {\n        require(count == 1, 'Count should be 1');\n        count = count + 1;\n    }\n}\n",
  "sourcePath": "/Users/hoonilkim/work/klay-dapp/generator-klay-dapp/generators/app/templates/contracts/Count2.sol",
  "compiler": {
    "name": "solc",
    "version": "0.4.24+commit.e67f0147.Emscripten.clang"
  },
  "schemaVersion": "2.0.1",
  "updatedAt": "2018-12-10T07:12:41.249Z"
}