{
  "contractName": "Count",
  "abi": [
    {
      "constant": true,
      "inputs": [],
      "name": "count",
      "outputs": [
        {
          "name": "",
          "type": "uint256"
        }
      ],
      "payable": false,
      "stateMutability": "view",
      "type": "function"
    },
    {
      "constant": true,
      "inputs": [],
      "name": "owner",
      "outputs": [
        {
          "name": "",
          "type": "address"
        }
      ],
      "payable": false,
      "stateMutability": "view",
      "type": "function"
    },
    {
      "constant": true,
      "inputs": [],
      "name": "lastParticipant",
      "outputs": [
        {
          "name": "",
          "type": "address"
        }
      ],
      "payable": false,
      "stateMutability": "view",
      "type": "function"
    },
    {
      "inputs": [],
      "payable": false,
      "stateMutability": "nonpayable",
      "type": "constructor"
    },
    {
      "constant": false,
      "inputs": [],
      "name": "plus",
      "outputs": [],
      "payable": false,
      "stateMutability": "nonpayable",
      "type": "function"
    },
    {
      "constant": false,
      "inputs": [],
      "name": "minus",
      "outputs": [],
      "payable": false,
      "stateMutability": "nonpayable",
      "type": "function"
    },
    {
      "constant": false,
      "inputs": [],
      "name": "reset",
      "outputs": [],
      "payable": false,
      "stateMutability": "nonpayable",
      "type": "function"
    }
  ],
  "bytecode": "0x608060405234801561001057600080fd5b50336000806101000a81548173ffffffffffffffffffffffffffffffffffffffff021916908373ffffffffffffffffffffffffffffffffffffffff1602179055506000600281905550610328806100686000396000f300608060405260043610610078576000357c0100000000000000000000000000000000000000000000000000000000900463ffffffff16806306661abd1461007d57806314434fa5146100a857806318b0c3fd146100bf5780638da5cb5b146100d6578063bfe7e4e31461012d578063d826f88f14610184575b600080fd5b34801561008957600080fd5b5061009261019b565b6040518082815260200191505060405180910390f35b3480156100b457600080fd5b506100bd6101a1565b005b3480156100cb57600080fd5b506100d46101f7565b005b3480156100e257600080fd5b506100eb61024c565b604051808273ffffffffffffffffffffffffffffffffffffffff1673ffffffffffffffffffffffffffffffffffffffff16815260200191505060405180910390f35b34801561013957600080fd5b50610142610271565b604051808273ffffffffffffffffffffffffffffffffffffffff1673ffffffffffffffffffffffffffffffffffffffff16815260200191505060405180910390f35b34801561019057600080fd5b50610199610297565b005b60025481565b6002600081548092919060019003919050555033600160006101000a81548173ffffffffffffffffffffffffffffffffffffffff021916908373ffffffffffffffffffffffffffffffffffffffff160217905550565b60026000815480929190600101919050555033600160006101000a81548173ffffffffffffffffffffffffffffffffffffffff021916908373ffffffffffffffffffffffffffffffffffffffff160217905550565b6000809054906101000a900473ffffffffffffffffffffffffffffffffffffffff1681565b600160009054906101000a900473ffffffffffffffffffffffffffffffffffffffff1681565b6000809054906101000a900473ffffffffffffffffffffffffffffffffffffffff1673ffffffffffffffffffffffffffffffffffffffff163373ffffffffffffffffffffffffffffffffffffffff161415156102f257600080fd5b60006002819055505600a165627a7a72305820446490cb7781b144bfd9e001d179f296bf9b80080ae0dd847f83a35f1c0e518a0029",
  "source": "pragma solidity ^0.4.23;\n\n/*\n  * storage variables *\n  Count contract has 3 public storage variables.\n\n  1) owner - By default, owner is contract deployer's address.\n             `reset` function only can be called by owner.\n  2) lastParticipant - lastParticipant is last person's address\n                       who sent a transaction(called plus or minus) to Count contract.\n  3) count - By default, count's value is 0,\n             it could increase or decrease through `plus` or `minus` function.\n  Count contract.\n\n  * functions *\n  Count contract has 3 public functions.\n  1) plus - increase `count` storage variable by 1. (+1)\n  2) minus - decrease `count` storage variable by 1. (-1)\n  3) reset - reset `count` storage variable to 0.\n */\n\ncontract Count {\n  address public owner;\n  address public lastParticipant;\n  uint public count;\n\n  constructor() public {\n    owner = msg.sender;\n    count = 0;\n  }\n\n  modifier onlyOwner() {\n    require(msg.sender == owner);\n    _;\n  }\n\n  function plus() public {\n    count++;\n    lastParticipant = msg.sender;\n  }\n\n  function minus() public {\n    count--;\n    lastParticipant = msg.sender;\n  }\n\n  function reset() public onlyOwner {\n    count = 0;\n  }\n}\n",
  "sourcePath": "/Users/hoonilkim/work/klay-dapp/generator-klay-dapp/generators/app/templates/contracts/Count.sol",
  "compiler": {
    "name": "solc",
    "version": "0.4.24+commit.e67f0147.Emscripten.clang"
  },
  "schemaVersion": "2.0.1",
  "updatedAt": "2018-11-02T12:40:30.431Z"
}